{"contracts/DrugVerification.sol":{"DrugVerification":{"abi":[{"anonymous":false,"inputs":[{"indexed":true,"internalType":"bytes32","name":"batchHash","type":"bytes32"},{"indexed":false,"internalType":"bytes32","name":"merkleRoot","type":"bytes32"},{"indexed":true,"internalType":"address","name":"verifier","type":"address"}],"name":"DrugBatchVerified","type":"event"},{"anonymous":false,"inputs":[{"indexed":true,"internalType":"bytes32","name":"drugHash","type":"bytes32"},{"indexed":false,"internalType":"bool","name":"isValid","type":"bool"},{"indexed":true,"internalType":"address","name":"verifier","type":"address"}],"name":"DrugVerificationResult","type":"event"},{"inputs":[{"internalType":"bytes32","name":"","type":"bytes32"}],"name":"batchMerkleRoots","outputs":[{"internalType":"bytes32","name":"","type":"bytes32"}],"stateMutability":"view","type":"function"},{"inputs":[{"components":[{"internalType":"string","name":"name","type":"string"},{"internalType":"string","name":"manufacturer","type":"string"},{"internalType":"uint256","name":"batchNumber","type":"uint256"},{"internalType":"uint256","name":"manufactureDate","type":"uint256"},{"internalType":"uint256","name":"expiryDate","type":"uint256"},{"internalType":"string","name":"additionalData","type":"string"}],"internalType":"struct DrugVerification.DrugData","name":"_drug","type":"tuple"}],"name":"generateDrugHash","outputs":[{"internalType":"bytes32","name":"","type":"bytes32"}],"stateMutability":"pure","type":"function"},{"inputs":[{"internalType":"bytes32","name":"_batchHash","type":"bytes32"}],"name":"getBatchRoot","outputs":[{"internalType":"bytes32","name":"","type":"bytes32"}],"stateMutability":"view","type":"function"},{"inputs":[{"internalType":"bytes32","name":"_drugHash","type":"bytes32"}],"name":"isDrugVerified","outputs":[{"internalType":"bool","name":"","type":"bool"}],"stateMutability":"view","type":"function"},{"inputs":[{"internalType":"bytes32","name":"_batchHash","type":"bytes32"},{"internalType":"bytes32","name":"_merkleRoot","type":"bytes32"}],"name":"setBatchMerkleRoot","outputs":[],"stateMutability":"nonpayable","type":"function"},{"inputs":[{"internalType":"bytes32","name":"","type":"bytes32"}],"name":"verifiedDrugs","outputs":[{"internalType":"bool","name":"","type":"bool"}],"stateMutability":"view","type":"function"},{"inputs":[{"internalType":"bytes32","name":"_batchHash","type":"bytes32"},{"internalType":"bytes32","name":"_drugHash","type":"bytes32"},{"internalType":"bytes32[]","name":"_proof","type":"bytes32[]"}],"name":"verifyDrugInBatch","outputs":[{"internalType":"bool","name":"","type":"bool"}],"stateMutability":"nonpayable","type":"function"}],"evm":{"bytecode":{"linkReferences":{},"object":"608060405234801561001057600080fd5b506106e3806100206000396000f3fe608060405234801561001057600080fd5b506004361061007d5760003560e01c806352bcc90d1161005b57806352bcc90d146100fb5780635b46e13e1461011e578063b06e238014610131578063e14b17851461015157600080fd5b80631d4aa61f146100825780633a99589e146100ba5780633acba8ec146100db575b600080fd5b6100a5610090366004610359565b60009081526001602052604090205460ff1690565b60405190151581526020015b60405180910390f35b6100cd6100c8366004610452565b610166565b6040519081526020016100b1565b6100cd6100e9366004610359565b60009081526020819052604090205490565b6100a5610109366004610359565b60016020526000908152604090205460ff1681565b6100a561012c366004610525565b6101b3565b6100cd61013f366004610359565b60006020819052908152604090205481565b61016461015f3660046105e0565b610279565b005b80516020808301516040808501516060860151608087015160a08801519351600097610196979096959101610632565b604051602081830303815290604052805190602001209050919050565b600083815260208190526040812054806102055760405162461bcd60e51b815260206004820152600f60248201526e10985d18da081b9bdd08199bdd5b99608a1b604482015260640160405180910390fd5b60006102128483876102c4565b90508015610237576000858152600160208190526040909120805460ff191690911790555b6040518115158152339086907f527923879447fb3ef7368d0b61c8584d421e6cad0618837e5972ee507671a9e79060200160405180910390a395945050505050565b600082815260208181526040918290208390559051828152339184917f6d6c8273f006e42aa23db2738b3dfbfe822f954028d7e7408f232fda03ba879c910160405180910390a35050565b6000826102d185846102da565b14949350505050565b600081815b845181101561031f5761030b828683815181106102fe576102fe610670565b6020026020010151610327565b91508061031781610686565b9150506102df565b509392505050565b6000818310610343576000828152602084905260409020610352565b60008381526020839052604090205b9392505050565b60006020828403121561036b57600080fd5b5035919050565b634e487b7160e01b600052604160045260246000fd5b60405160c0810167ffffffffffffffff811182821017156103ab576103ab610372565b60405290565b604051601f8201601f1916810167ffffffffffffffff811182821017156103da576103da610372565b604052919050565b600082601f8301126103f357600080fd5b813567ffffffffffffffff81111561040d5761040d610372565b610420601f8201601f19166020016103b1565b81815284602083860101111561043557600080fd5b816020850160208301376000918101602001919091529392505050565b60006020828403121561046457600080fd5b813567ffffffffffffffff8082111561047c57600080fd5b9083019060c0828603121561049057600080fd5b610498610388565b8235828111156104a757600080fd5b6104b3878286016103e2565b8252506020830135828111156104c857600080fd5b6104d4878286016103e2565b60208301525060408301356040820152606083013560608201526080830135608082015260a08301358281111561050a57600080fd5b610516878286016103e2565b60a08301525095945050505050565b60008060006060848603121561053a57600080fd5b833592506020808501359250604085013567ffffffffffffffff8082111561056157600080fd5b818701915087601f83011261057557600080fd5b81358181111561058757610587610372565b8060051b91506105988483016103b1565b818152918301840191848101908a8411156105b257600080fd5b938501935b838510156105d0578435825293850193908501906105b7565b8096505050505050509250925092565b600080604083850312156105f357600080fd5b50508035926020909101359150565b6000815160005b818110156106235760208185018101518683015201610609565b50600093019283525090919050565b6000610647610641838a610602565b88610602565b8681528560208201528460408201526106636060820185610602565b9998505050505050505050565b634e487b7160e01b600052603260045260246000fd5b6000600182016106a657634e487b7160e01b600052601160045260246000fd5b506001019056fea26469706673582212204440aa164f50698453b1252c11d02ca4eb2aadd73ecc32000f24ad8d8c4057e864736f6c63430008140033","opcodes":"PUSH1 0x80 PUSH1 0x40 MSTORE CALLVALUE DUP1 ISZERO PUSH2 0x10 JUMPI PUSH1 0x0 DUP1 REVERT JUMPDEST POP PUSH2 0x6E3 DUP1 PUSH2 0x20 PUSH1 0x0 CODECOPY PUSH1 0x0 RETURN INVALID PUSH1 0x80 PUSH1 0x40 MSTORE CALLVALUE DUP1 ISZERO PUSH2 0x10 JUMPI PUSH1 0x0 DUP1 REVERT JUMPDEST POP PUSH1 0x4 CALLDATASIZE LT PUSH2 0x7D JUMPI PUSH1 0x0 CALLDATALOAD PUSH1 0xE0 SHR DUP1 PUSH4 0x52BCC90D GT PUSH2 0x5B JUMPI DUP1 PUSH4 0x52BCC90D EQ PUSH2 0xFB JUMPI DUP1 PUSH4 0x5B46E13E EQ PUSH2 0x11E JUMPI DUP1 PUSH4 0xB06E2380 EQ PUSH2 0x131 JUMPI DUP1 PUSH4 0xE14B1785 EQ PUSH2 0x151 JUMPI PUSH1 0x0 DUP1 REVERT JUMPDEST DUP1 PUSH4 0x1D4AA61F EQ PUSH2 0x82 JUMPI DUP1 PUSH4 0x3A99589E EQ PUSH2 0xBA JUMPI DUP1 PUSH4 0x3ACBA8EC EQ PUSH2 0xDB JUMPI JUMPDEST PUSH1 0x0 DUP1 REVERT JUMPDEST PUSH2 0xA5 PUSH2 0x90 CALLDATASIZE PUSH1 0x4 PUSH2 0x359 JUMP JUMPDEST PUSH1 0x0 SWAP1 DUP2 MSTORE PUSH1 0x1 PUSH1 0x20 MSTORE PUSH1 0x40 SWAP1 KECCAK256 SLOAD PUSH1 0xFF AND SWAP1 JUMP JUMPDEST PUSH1 0x40 MLOAD SWAP1 ISZERO ISZERO DUP2 MSTORE PUSH1 0x20 ADD JUMPDEST PUSH1 0x40 MLOAD DUP1 SWAP2 SUB SWAP1 RETURN JUMPDEST PUSH2 0xCD PUSH2 0xC8 CALLDATASIZE PUSH1 0x4 PUSH2 0x452 JUMP JUMPDEST PUSH2 0x166 JUMP JUMPDEST PUSH1 0x40 MLOAD SWAP1 DUP2 MSTORE PUSH1 0x20 ADD PUSH2 0xB1 JUMP JUMPDEST PUSH2 0xCD PUSH2 0xE9 CALLDATASIZE PUSH1 0x4 PUSH2 0x359 JUMP JUMPDEST PUSH1 0x0 SWAP1 DUP2 MSTORE PUSH1 0x20 DUP2 SWAP1 MSTORE PUSH1 0x40 SWAP1 KECCAK256 SLOAD SWAP1 JUMP JUMPDEST PUSH2 0xA5 PUSH2 0x109 CALLDATASIZE PUSH1 0x4 PUSH2 0x359 JUMP JUMPDEST PUSH1 0x1 PUSH1 0x20 MSTORE PUSH1 0x0 SWAP1 DUP2 MSTORE PUSH1 0x40 SWAP1 KECCAK256 SLOAD PUSH1 0xFF AND DUP2 JUMP JUMPDEST PUSH2 0xA5 PUSH2 0x12C CALLDATASIZE PUSH1 0x4 PUSH2 0x525 JUMP JUMPDEST PUSH2 0x1B3 JUMP JUMPDEST PUSH2 0xCD PUSH2 0x13F CALLDATASIZE PUSH1 0x4 PUSH2 0x359 JUMP JUMPDEST PUSH1 0x0 PUSH1 0x20 DUP2 SWAP1 MSTORE SWAP1 DUP2 MSTORE PUSH1 0x40 SWAP1 KECCAK256 SLOAD DUP2 JUMP JUMPDEST PUSH2 0x164 PUSH2 0x15F CALLDATASIZE PUSH1 0x4 PUSH2 0x5E0 JUMP JUMPDEST PUSH2 0x279 JUMP JUMPDEST STOP JUMPDEST DUP1 MLOAD PUSH1 0x20 DUP1 DUP4 ADD MLOAD PUSH1 0x40 DUP1 DUP6 ADD MLOAD PUSH1 0x60 DUP7 ADD MLOAD PUSH1 0x80 DUP8 ADD MLOAD PUSH1 0xA0 DUP9 ADD MLOAD SWAP4 MLOAD PUSH1 0x0 SWAP8 PUSH2 0x196 SWAP8 SWAP1 SWAP7 SWAP6 SWAP2 ADD PUSH2 0x632 JUMP JUMPDEST PUSH1 0x40 MLOAD PUSH1 0x20 DUP2 DUP4 SUB SUB DUP2 MSTORE SWAP1 PUSH1 0x40 MSTORE DUP1 MLOAD SWAP1 PUSH1 0x20 ADD KECCAK256 SWAP1 POP SWAP2 SWAP1 POP JUMP JUMPDEST PUSH1 0x0 DUP4 DUP2 MSTORE PUSH1 0x20 DUP2 SWAP1 MSTORE PUSH1 0x40 DUP2 KECCAK256 SLOAD DUP1 PUSH2 0x205 JUMPI PUSH1 0x40 MLOAD PUSH3 0x461BCD PUSH1 0xE5 SHL DUP2 MSTORE PUSH1 0x20 PUSH1 0x4 DUP3 ADD MSTORE PUSH1 0xF PUSH1 0x24 DUP3 ADD MSTORE PUSH15 0x10985D18DA081B9BDD08199BDD5B99 PUSH1 0x8A SHL PUSH1 0x44 DUP3 ADD MSTORE PUSH1 0x64 ADD PUSH1 0x40 MLOAD DUP1 SWAP2 SUB SWAP1 REVERT JUMPDEST PUSH1 0x0 PUSH2 0x212 DUP5 DUP4 DUP8 PUSH2 0x2C4 JUMP JUMPDEST SWAP1 POP DUP1 ISZERO PUSH2 0x237 JUMPI PUSH1 0x0 DUP6 DUP2 MSTORE PUSH1 0x1 PUSH1 0x20 DUP2 SWAP1 MSTORE PUSH1 0x40 SWAP1 SWAP2 KECCAK256 DUP1 SLOAD PUSH1 0xFF NOT AND SWAP1 SWAP2 OR SWAP1 SSTORE JUMPDEST PUSH1 0x40 MLOAD DUP2 ISZERO ISZERO DUP2 MSTORE CALLER SWAP1 DUP7 SWAP1 PUSH32 0x527923879447FB3EF7368D0B61C8584D421E6CAD0618837E5972EE507671A9E7 SWAP1 PUSH1 0x20 ADD PUSH1 0x40 MLOAD DUP1 SWAP2 SUB SWAP1 LOG3 SWAP6 SWAP5 POP POP POP POP POP JUMP JUMPDEST PUSH1 0x0 DUP3 DUP2 MSTORE PUSH1 0x20 DUP2 DUP2 MSTORE PUSH1 0x40 SWAP2 DUP3 SWAP1 KECCAK256 DUP4 SWAP1 SSTORE SWAP1 MLOAD DUP3 DUP2 MSTORE CALLER SWAP2 DUP5 SWAP2 PUSH32 0x6D6C8273F006E42AA23DB2738B3DFBFE822F954028D7E7408F232FDA03BA879C SWAP2 ADD PUSH1 0x40 MLOAD DUP1 SWAP2 SUB SWAP1 LOG3 POP POP JUMP JUMPDEST PUSH1 0x0 DUP3 PUSH2 0x2D1 DUP6 DUP5 PUSH2 0x2DA JUMP JUMPDEST EQ SWAP5 SWAP4 POP POP POP POP JUMP JUMPDEST PUSH1 0x0 DUP2 DUP2 JUMPDEST DUP5 MLOAD DUP2 LT ISZERO PUSH2 0x31F JUMPI PUSH2 0x30B DUP3 DUP7 DUP4 DUP2 MLOAD DUP2 LT PUSH2 0x2FE JUMPI PUSH2 0x2FE PUSH2 0x670 JUMP JUMPDEST PUSH1 0x20 MUL PUSH1 0x20 ADD ADD MLOAD PUSH2 0x327 JUMP JUMPDEST SWAP2 POP DUP1 PUSH2 0x317 DUP2 PUSH2 0x686 JUMP JUMPDEST SWAP2 POP POP PUSH2 0x2DF JUMP JUMPDEST POP SWAP4 SWAP3 POP POP POP JUMP JUMPDEST PUSH1 0x0 DUP2 DUP4 LT PUSH2 0x343 JUMPI PUSH1 0x0 DUP3 DUP2 MSTORE PUSH1 0x20 DUP5 SWAP1 MSTORE PUSH1 0x40 SWAP1 KECCAK256 PUSH2 0x352 JUMP JUMPDEST PUSH1 0x0 DUP4 DUP2 MSTORE PUSH1 0x20 DUP4 SWAP1 MSTORE PUSH1 0x40 SWAP1 KECCAK256 JUMPDEST SWAP4 SWAP3 POP POP POP JUMP JUMPDEST PUSH1 0x0 PUSH1 0x20 DUP3 DUP5 SUB SLT ISZERO PUSH2 0x36B JUMPI PUSH1 0x0 DUP1 REVERT JUMPDEST POP CALLDATALOAD SWAP2 SWAP1 POP JUMP JUMPDEST PUSH4 0x4E487B71 PUSH1 0xE0 SHL PUSH1 0x0 MSTORE PUSH1 0x41 PUSH1 0x4 MSTORE PUSH1 0x24 PUSH1 0x0 REVERT JUMPDEST PUSH1 0x40 MLOAD PUSH1 0xC0 DUP2 ADD PUSH8 0xFFFFFFFFFFFFFFFF DUP2 GT DUP3 DUP3 LT OR ISZERO PUSH2 0x3AB JUMPI PUSH2 0x3AB PUSH2 0x372 JUMP JUMPDEST PUSH1 0x40 MSTORE SWAP1 JUMP JUMPDEST PUSH1 0x40 MLOAD PUSH1 0x1F DUP3 ADD PUSH1 0x1F NOT AND DUP2 ADD PUSH8 0xFFFFFFFFFFFFFFFF DUP2 GT DUP3 DUP3 LT OR ISZERO PUSH2 0x3DA JUMPI PUSH2 0x3DA PUSH2 0x372 JUMP JUMPDEST PUSH1 0x40 MSTORE SWAP2 SWAP1 POP JUMP JUMPDEST PUSH1 0x0 DUP3 PUSH1 0x1F DUP4 ADD SLT PUSH2 0x3F3 JUMPI PUSH1 0x0 DUP1 REVERT JUMPDEST DUP2 CALLDATALOAD PUSH8 0xFFFFFFFFFFFFFFFF DUP2 GT ISZERO PUSH2 0x40D JUMPI PUSH2 0x40D PUSH2 0x372 JUMP JUMPDEST PUSH2 0x420 PUSH1 0x1F DUP3 ADD PUSH1 0x1F NOT AND PUSH1 0x20 ADD PUSH2 0x3B1 JUMP JUMPDEST DUP2 DUP2 MSTORE DUP5 PUSH1 0x20 DUP4 DUP7 ADD ADD GT ISZERO PUSH2 0x435 JUMPI PUSH1 0x0 DUP1 REVERT JUMPDEST DUP2 PUSH1 0x20 DUP6 ADD PUSH1 0x20 DUP4 ADD CALLDATACOPY PUSH1 0x0 SWAP2 DUP2 ADD PUSH1 0x20 ADD SWAP2 SWAP1 SWAP2 MSTORE SWAP4 SWAP3 POP POP POP JUMP JUMPDEST PUSH1 0x0 PUSH1 0x20 DUP3 DUP5 SUB SLT ISZERO PUSH2 0x464 JUMPI PUSH1 0x0 DUP1 REVERT JUMPDEST DUP2 CALLDATALOAD PUSH8 0xFFFFFFFFFFFFFFFF DUP1 DUP3 GT ISZERO PUSH2 0x47C JUMPI PUSH1 0x0 DUP1 REVERT JUMPDEST SWAP1 DUP4 ADD SWAP1 PUSH1 0xC0 DUP3 DUP7 SUB SLT ISZERO PUSH2 0x490 JUMPI PUSH1 0x0 DUP1 REVERT JUMPDEST PUSH2 0x498 PUSH2 0x388 JUMP JUMPDEST DUP3 CALLDATALOAD DUP3 DUP2 GT ISZERO PUSH2 0x4A7 JUMPI PUSH1 0x0 DUP1 REVERT JUMPDEST PUSH2 0x4B3 DUP8 DUP3 DUP7 ADD PUSH2 0x3E2 JUMP JUMPDEST DUP3 MSTORE POP PUSH1 0x20 DUP4 ADD CALLDATALOAD DUP3 DUP2 GT ISZERO PUSH2 0x4C8 JUMPI PUSH1 0x0 DUP1 REVERT JUMPDEST PUSH2 0x4D4 DUP8 DUP3 DUP7 ADD PUSH2 0x3E2 JUMP JUMPDEST PUSH1 0x20 DUP4 ADD MSTORE POP PUSH1 0x40 DUP4 ADD CALLDATALOAD PUSH1 0x40 DUP3 ADD MSTORE PUSH1 0x60 DUP4 ADD CALLDATALOAD PUSH1 0x60 DUP3 ADD MSTORE PUSH1 0x80 DUP4 ADD CALLDATALOAD PUSH1 0x80 DUP3 ADD MSTORE PUSH1 0xA0 DUP4 ADD CALLDATALOAD DUP3 DUP2 GT ISZERO PUSH2 0x50A JUMPI PUSH1 0x0 DUP1 REVERT JUMPDEST PUSH2 0x516 DUP8 DUP3 DUP7 ADD PUSH2 0x3E2 JUMP JUMPDEST PUSH1 0xA0 DUP4 ADD MSTORE POP SWAP6 SWAP5 POP POP POP POP POP JUMP JUMPDEST PUSH1 0x0 DUP1 PUSH1 0x0 PUSH1 0x60 DUP5 DUP7 SUB SLT ISZERO PUSH2 0x53A JUMPI PUSH1 0x0 DUP1 REVERT JUMPDEST DUP4 CALLDATALOAD SWAP3 POP PUSH1 0x20 DUP1 DUP6 ADD CALLDATALOAD SWAP3 POP PUSH1 0x40 DUP6 ADD CALLDATALOAD PUSH8 0xFFFFFFFFFFFFFFFF DUP1 DUP3 GT ISZERO PUSH2 0x561 JUMPI PUSH1 0x0 DUP1 REVERT JUMPDEST DUP2 DUP8 ADD SWAP2 POP DUP8 PUSH1 0x1F DUP4 ADD SLT PUSH2 0x575 JUMPI PUSH1 0x0 DUP1 REVERT JUMPDEST DUP2 CALLDATALOAD DUP2 DUP2 GT ISZERO PUSH2 0x587 JUMPI PUSH2 0x587 PUSH2 0x372 JUMP JUMPDEST DUP1 PUSH1 0x5 SHL SWAP2 POP PUSH2 0x598 DUP5 DUP4 ADD PUSH2 0x3B1 JUMP JUMPDEST DUP2 DUP2 MSTORE SWAP2 DUP4 ADD DUP5 ADD SWAP2 DUP5 DUP2 ADD SWAP1 DUP11 DUP5 GT ISZERO PUSH2 0x5B2 JUMPI PUSH1 0x0 DUP1 REVERT JUMPDEST SWAP4 DUP6 ADD SWAP4 JUMPDEST DUP4 DUP6 LT ISZERO PUSH2 0x5D0 JUMPI DUP5 CALLDATALOAD DUP3 MSTORE SWAP4 DUP6 ADD SWAP4 SWAP1 DUP6 ADD SWAP1 PUSH2 0x5B7 JUMP JUMPDEST DUP1 SWAP7 POP POP POP POP POP POP POP SWAP3 POP SWAP3 POP SWAP3 JUMP JUMPDEST PUSH1 0x0 DUP1 PUSH1 0x40 DUP4 DUP6 SUB SLT ISZERO PUSH2 0x5F3 JUMPI PUSH1 0x0 DUP1 REVERT JUMPDEST POP POP DUP1 CALLDATALOAD SWAP3 PUSH1 0x20 SWAP1 SWAP2 ADD CALLDATALOAD SWAP2 POP JUMP JUMPDEST PUSH1 0x0 DUP2 MLOAD PUSH1 0x0 JUMPDEST DUP2 DUP2 LT ISZERO PUSH2 0x623 JUMPI PUSH1 0x20 DUP2 DUP6 ADD DUP2 ADD MLOAD DUP7 DUP4 ADD MSTORE ADD PUSH2 0x609 JUMP JUMPDEST POP PUSH1 0x0 SWAP4 ADD SWAP3 DUP4 MSTORE POP SWAP1 SWAP2 SWAP1 POP JUMP JUMPDEST PUSH1 0x0 PUSH2 0x647 PUSH2 0x641 DUP4 DUP11 PUSH2 0x602 JUMP JUMPDEST DUP9 PUSH2 0x602 JUMP JUMPDEST DUP7 DUP2 MSTORE DUP6 PUSH1 0x20 DUP3 ADD MSTORE DUP5 PUSH1 0x40 DUP3 ADD MSTORE PUSH2 0x663 PUSH1 0x60 DUP3 ADD DUP6 PUSH2 0x602 JUMP JUMPDEST SWAP10 SWAP9 POP POP POP POP POP POP POP POP POP JUMP JUMPDEST PUSH4 0x4E487B71 PUSH1 0xE0 SHL PUSH1 0x0 MSTORE PUSH1 0x32 PUSH1 0x4 MSTORE PUSH1 0x24 PUSH1 0x0 REVERT JUMPDEST PUSH1 0x0 PUSH1 0x1 DUP3 ADD PUSH2 0x6A6 JUMPI PUSH4 0x4E487B71 PUSH1 0xE0 SHL PUSH1 0x0 MSTORE PUSH1 0x11 PUSH1 0x4 MSTORE PUSH1 0x24 PUSH1 0x0 REVERT JUMPDEST POP PUSH1 0x1 ADD SWAP1 JUMP INVALID LOG2 PUSH5 0x6970667358 0x22 SLT KECCAK256 PREVRANDAO BLOCKHASH 0xAA AND 0x4F POP PUSH10 0x8453B1252C11D02CA4EB 0x2A 0xAD 0xD7 RETURNDATACOPY 0xCC ORIGIN STOP 0xF 0x24 0xAD DUP14 DUP13 BLOCKHASH JUMPI 0xE8 PUSH5 0x736F6C6343 STOP ADDMOD EQ STOP CALLER "},"methodIdentifiers":{"batchMerkleRoots(bytes32)":"b06e2380","generateDrugHash((string,string,uint256,uint256,uint256,string))":"3a99589e","getBatchRoot(bytes32)":"3acba8ec","isDrugVerified(bytes32)":"1d4aa61f","setBatchMerkleRoot(bytes32,bytes32)":"e14b1785","verifiedDrugs(bytes32)":"52bcc90d","verifyDrugInBatch(bytes32,bytes32,bytes32[])":"5b46e13e"}}}}}