{
  "_format": "hh-sol-artifact-1",
  "contractName": "IPFSStorage",
  "sourceName": "contracts/IPFSStorage.sol",
  "abi": [
    {
      "anonymous": false,
      "inputs": [
        {
          "indexed": true,
          "internalType": "bytes32",
          "name": "key",
          "type": "bytes32"
        },
        {
          "indexed": false,
          "internalType": "string",
          "name": "ipfsHash",
          "type": "string"
        },
        {
          "indexed": true,
          "internalType": "address",
          "name": "uploader",
          "type": "address"
        },
        {
          "indexed": false,
          "internalType": "uint256",
          "name": "timestamp",
          "type": "uint256"
        }
      ],
      "name": "IPFSHashStored",
      "type": "event"
    },
    {
      "inputs": [
        {
          "internalType": "bytes32",
          "name": "_key",
          "type": "bytes32"
        }
      ],
      "name": "getIPFSData",
      "outputs": [
        {
          "components": [
            {
              "internalType": "string",
              "name": "hash",
              "type": "string"
            },
            {
              "internalType": "uint256",
              "name": "timestamp",
              "type": "uint256"
            },
            {
              "internalType": "address",
              "name": "uploader",
              "type": "address"
            },
            {
              "internalType": "string",
              "name": "metadata",
              "type": "string"
            },
            {
              "internalType": "bool",
              "name": "exists",
              "type": "bool"
            }
          ],
          "internalType": "struct IPFSStorage.IPFSData",
          "name": "",
          "type": "tuple"
        }
      ],
      "stateMutability": "view",
      "type": "function"
    },
    {
      "inputs": [
        {
          "internalType": "bytes32",
          "name": "_key",
          "type": "bytes32"
        }
      ],
      "name": "getIPFSHash",
      "outputs": [
        {
          "internalType": "string",
          "name": "",
          "type": "string"
        }
      ],
      "stateMutability": "view",
      "type": "function"
    },
    {
      "inputs": [
        {
          "internalType": "address",
          "name": "_user",
          "type": "address"
        }
      ],
      "name": "getUserUploads",
      "outputs": [
        {
          "internalType": "bytes32[]",
          "name": "",
          "type": "bytes32[]"
        }
      ],
      "stateMutability": "view",
      "type": "function"
    },
    {
      "inputs": [
        {
          "internalType": "bytes32",
          "name": "",
          "type": "bytes32"
        }
      ],
      "name": "ipfsData",
      "outputs": [
        {
          "internalType": "string",
          "name": "hash",
          "type": "string"
        },
        {
          "internalType": "uint256",
          "name": "timestamp",
          "type": "uint256"
        },
        {
          "internalType": "address",
          "name": "uploader",
          "type": "address"
        },
        {
          "internalType": "string",
          "name": "metadata",
          "type": "string"
        },
        {
          "internalType": "bool",
          "name": "exists",
          "type": "bool"
        }
      ],
      "stateMutability": "view",
      "type": "function"
    },
    {
      "inputs": [
        {
          "internalType": "bytes32",
          "name": "_key",
          "type": "bytes32"
        },
        {
          "internalType": "string",
          "name": "_ipfsHash",
          "type": "string"
        },
        {
          "internalType": "string",
          "name": "_metadata",
          "type": "string"
        }
      ],
      "name": "storeIPFSHash",
      "outputs": [],
      "stateMutability": "nonpayable",
      "type": "function"
    },
    {
      "inputs": [
        {
          "internalType": "address",
          "name": "",
          "type": "address"
        },
        {
          "internalType": "uint256",
          "name": "",
          "type": "uint256"
        }
      ],
      "name": "userUploads",
      "outputs": [
        {
          "internalType": "bytes32",
          "name": "",
          "type": "bytes32"
        }
      ],
      "stateMutability": "view",
      "type": "function"
    }
  ],
  "bytecode": "0x608060405234801561001057600080fd5b50610c48806100206000396000f3fe608060405234801561001057600080fd5b50600436106100625760003560e01c8063030d1efe146100675780632ed5ef141461008d5780633d6f47b7146100ad578063412bd348146100cd57806385b78b19146100ed578063f657367e14610102575b600080fd5b61007a6100753660046107d7565b610126565b6040519081526020015b60405180910390f35b6100a061009b366004610801565b610157565b6040516100849190610860565b6100c06100bb366004610801565b610259565b604051610084919061087a565b6100e06100db3660046108e8565b610453565b6040516100849190610903565b6101006100fb3660046109ea565b6104be565b005b610115610110366004610801565b61066c565b604051610084959493929190610a57565b6001602052816000526040600020818154811061014257600080fd5b90600052602060002001600091509150505481565b60008181526020819052604090206004015460609060ff166101bb5760405162461bcd60e51b815260206004820152601860248201527712541194c819185d1848191bd95cc81b9bdd08195e1a5cdd60421b60448201526064015b60405180910390fd5b600082815260208190526040902080546101d490610aa7565b80601f016020809104026020016040519081016040528092919081815260200182805461020090610aa7565b801561024d5780601f106102225761010080835404028352916020019161024d565b820191906000526020600020905b81548152906001019060200180831161023057829003601f168201915b50505050509050919050565b6040805160a081018252606080825260006020830181905292820183905280820152608081019190915260008281526020819052604090206004015460ff166102df5760405162461bcd60e51b815260206004820152601860248201527712541194c819185d1848191bd95cc81b9bdd08195e1a5cdd60421b60448201526064016101b2565b60008281526020819052604090819020815160a0810190925280548290829061030790610aa7565b80601f016020809104026020016040519081016040528092919081815260200182805461033390610aa7565b80156103805780601f1061035557610100808354040283529160200191610380565b820191906000526020600020905b81548152906001019060200180831161036357829003601f168201915b50505091835250506001820154602082015260028201546001600160a01b031660408201526003820180546060909201916103ba90610aa7565b80601f01602080910402602001604051908101604052809291908181526020018280546103e690610aa7565b80156104335780601f1061040857610100808354040283529160200191610433565b820191906000526020600020905b81548152906001019060200180831161041657829003601f168201915b50505091835250506004919091015460ff16151560209091015292915050565b6001600160a01b03811660009081526001602090815260409182902080548351818402810184019094528084526060939283018282801561024d57602002820191906000526020600020905b81548152602001906001019080831161049f5750505050509050919050565b600082511161050f5760405162461bcd60e51b815260206004820152601960248201527f4950465320686173682063616e6e6f7420626520656d7074790000000000000060448201526064016101b2565b60008381526020819052604090206004015460ff16156105665760405162461bcd60e51b81526020600482015260126024820152714b657920616c72656164792065786973747360701b60448201526064016101b2565b6040805160a081018252838152426020808301919091523382840152606082018490526001608083015260008681529081905291909120815181906105ab9082610b30565b506020820151600182015560408201516002820180546001600160a01b0319166001600160a01b03909216919091179055606082015160038201906105f09082610b30565b50608091909101516004909101805460ff19169115159190911790553360008181526001602081815260408084208054938401815584529220018590555184907fac7155dfa80ff4b6e2413ca1dba8d96d498c168dd034321e86d26ed6f0440cd59061065f9086904290610bf0565b60405180910390a3505050565b60006020819052908152604090208054819061068790610aa7565b80601f01602080910402602001604051908101604052809291908181526020018280546106b390610aa7565b80156107005780601f106106d557610100808354040283529160200191610700565b820191906000526020600020905b8154815290600101906020018083116106e357829003601f168201915b5050505060018301546002840154600385018054949592946001600160a01b0390921693509061072f90610aa7565b80601f016020809104026020016040519081016040528092919081815260200182805461075b90610aa7565b80156107a85780601f1061077d576101008083540402835291602001916107a8565b820191906000526020600020905b81548152906001019060200180831161078b57829003601f168201915b5050506004909301549192505060ff1685565b80356001600160a01b03811681146107d257600080fd5b919050565b600080604083850312156107ea57600080fd5b6107f3836107bb565b946020939093013593505050565b60006020828403121561081357600080fd5b5035919050565b6000815180845260005b8181101561084057602081850181015186830182015201610824565b506000602082860101526020601f19601f83011685010191505092915050565b602081526000610873602083018461081a565b9392505050565b602081526000825160a0602084015261089660c084018261081a565b90506020840151604084015260018060a01b0360408501511660608401526060840151601f198483030160808501526108cf828261081a565b9150506080840151151560a08401528091505092915050565b6000602082840312156108fa57600080fd5b610873826107bb565b6020808252825182820181905260009190848201906040850190845b8181101561093b5783518352928401929184019160010161091f565b50909695505050505050565b634e487b7160e01b600052604160045260246000fd5b600082601f83011261096e57600080fd5b813567ffffffffffffffff8082111561098957610989610947565b604051601f8301601f19908116603f011681019082821181831017156109b1576109b1610947565b816040528381528660208588010111156109ca57600080fd5b836020870160208301376000602085830101528094505050505092915050565b6000806000606084860312156109ff57600080fd5b83359250602084013567ffffffffffffffff80821115610a1e57600080fd5b610a2a8783880161095d565b93506040860135915080821115610a4057600080fd5b50610a4d8682870161095d565b9150509250925092565b60a081526000610a6a60a083018861081a565b602083018790526001600160a01b03861660408401528281036060840152610a92818661081a565b91505082151560808301529695505050505050565b600181811c90821680610abb57607f821691505b602082108103610adb57634e487b7160e01b600052602260045260246000fd5b50919050565b601f821115610b2b57600081815260208120601f850160051c81016020861015610b085750805b601f850160051c820191505b81811015610b2757828155600101610b14565b5050505b505050565b815167ffffffffffffffff811115610b4a57610b4a610947565b610b5e81610b588454610aa7565b84610ae1565b602080601f831160018114610b935760008415610b7b5750858301515b600019600386901b1c1916600185901b178555610b27565b600085815260208120601f198616915b82811015610bc257888601518255948401946001909101908401610ba3565b5085821015610be05787850151600019600388901b60f8161c191681555b5050505050600190811b01905550565b604081526000610c03604083018561081a565b9050826020830152939250505056fea2646970667358221220ac46f1b02c20547f8db9b0cb5dfa49a3b61c7724121d15cbb97e04f00349313064736f6c63430008140033",
  "linkReferences": {},
  "deployedLinkReferences": {}
}